:100000000C9404010C9431010C9431010C943101D5
:100010000C9431010C9431010C9431010C94310198
:100020000C9431010C94AF010C94DD010C940B0283
:100030000C9431010C9431010C9431010C94310178
:100040000C9431010C9431010C9431010C94310168
:100050000C9431010C9431010C9431010C94330354
:100060000C9431010C9431010C9431010C94310148
:100070000C9431010C9431010C9431010C94310138
:100080000C9431010C9431010C9431010C94310128
:100090000C9431010C9431010C9431010C94310118
:1000A0000C9431010C9431010C9431010C94310108
:1000B0000C9431010C9431010C9431010C943101F8
:1000C0000C9431010C9431010C9431010C943101E8
:1000D0000C9431010C9431010C9431010C943101D8
:1000E0000C94310100002100240027002A002D007B
:1000F0003000330001010000040107010A01000083
:100100002200250028002B002E00310034000201BF
:100110000000050108010B0100002000230026005B
:1001200029002C002F00320000010000030106010D
:10013000090105050505070508080808020202026D
:100140000A0A080804040404010101010101010173
:100150000303030303030303040707070C0C0C0C3E
:100160000C0C0C0C02020202060606060606060627
:100170000B0B0B0B0B0B0B0B0102102020080810B4
:100180002040102040800201020108040201010207
:1001900004081020408080402010080402018004E0
:1001A000020180402010080402010804020101023B
:1001B0000408102040800102040810204080000044
:1001C000090A02080B0C0D070603040100000000D9
:1001D000000000000000000000000000000000001F
:1001E0000000000000000000000011100F000000DF
:1001F00000000000000000000000000000000000FF
:10020000000000003301390211241FBECFEFD1E2FC
:10021000DEBFCDBF00E00CBF12E0A0E0B2E0E6E937
:10022000F9E000E00BBF02C007900D92A030B107CB
:10023000D9F71BBE12E0A0E0B2E001C01D92A335C9
:10024000B107E1F712E0C8E0D2E004C02297FE0156
:100250000E94C504C430D107C9F70E9424030C943E
:10026000C9040C9400000F931F9300E012E0C80132
:1002700063E042E00E94D502C801029664E042E0D9
:100280000E94D5021F910F9108950F931F93CF9352
:10029000DF93FC01738D76957170A685B785958582
:1002A000772329F08C91892309F454C004C08C91E0
:1002B000892309F04FC08389948920E001972FEFAB
:1002C0008F3F9207D9F7C589D689A685B785158549
:1002D00060E031E040E050E000E0CE01202F0197E7
:1002E0002FEF8F3F9207D9F78C91812311F0632B69
:1002F00003C0832F80956823330F4F5F5F4F4830D3
:10030000510559F78789908D20E001972FEF8F3F96
:100310009207D9F7711160958091460220914702AA
:1003200090E001968F73907030E08217930779F018
:10033000E0914602F0E0EA5FFD4F60838091460263
:1003400090E001968F7390708093460203C0838D76
:100350008160838FDF91CF911F910F9108951F923C
:100360000F920FB60F920BB60F9211242F933F935B
:100370004F935F936F937F938F939F93AF93BF93AD
:10038000EF93FF938091040290910502009711F082
:100390000E944501FF91EF91BF91AF919F918F9185
:1003A0007F916F915F914F913F912F910F900BBE75
:1003B0000F900FBE0F901F9018951F920F920FB6BF
:1003C0000F920BB60F9211242F933F934F935F938D
:1003D0006F937F938F939F93AF93BF93EF93FF930D
:1003E0008091040290910502009711F00E9445014E
:1003F000FF91EF91BF91AF919F918F917F916F91FD
:100400005F914F913F912F910F900BBE0F900FBEB8
:100410000F901F9018951F920F920FB60F920BB668
:100420000F9211242F933F934F935F936F937F937A
:100430008F939F93AF93BF93EF93FF9380910402A9
:1004400090910502009711F00E944501FF91EF91F4
:10045000BF91AF919F918F917F916F915F914F91DC
:100460003F912F910F900BBE0F900FBE0F901F90DA
:100470001895109248020895E0E8F0E090819168A4
:100480009083877088608093810010928900109219
:1004900088008BE061E00E94DD030895E0E9F0E070
:1004A000908199609083877088608093910010920A
:1004B0009D0010929C0083E061E00E94DD0308959E
:1004C000E0EAF0E090819168908387708860809383
:1004D000A1001092A9001092A80086E061E00E949D
:1004E000DD030895E0E9F0E09081916890838770E2
:1004F000886080939100109299001092980085E096
:1005000061E00E94DD030895CF93DF9382E060E015
:100510000E94900488E060E00E949004C7E0D0E070
:1005200084E060E00E9490048091490290E00C2EEB
:1005300002C0959587950A94E2F780FF03C088E092
:1005400061E002C088E060E00E94900484E061E025
:100550000E94900421978FEFCF3FD80709F782E0E0
:1005600061E00E949004DF91CF9108950F931F9353
:100570008C0182E061E00E94DD0383E061E00E9483
:10058000DD0388E061E00E94DD0384E061E00E9419
:10059000DD0310924902C8010E94840283E060E0FA
:1005A0000E9490041F910F9108950F931F93FC01D7
:1005B000162F042F6083418388E492E00E94B602E4
:1005C0001230B9F0133018F41130C9F505C01330EA
:1005D000E9F01430A1F527C080914902837F809310
:1005E000490288E492E00E948402802F0E943C022B
:1005F00026C0809149028D7E8093490288E492E072
:100600000E948402802F0E944E0219C080914902EC
:100610008F758093490288E492E00E948402802FC3
:100620000E9460020CC0809149028E7B8093490237
:1006300088E492E00E948402802F0E9472021F913F
:100640000F91089508950895CF93DF930E947B033F
:100650000E942203C0E0D0E00E9423032097E1F330
:100660000E940000F9CF1F920F920FB60F92112433
:100670002F933F938F939F93AF93BF9380914E029D
:1006800090914F02A0915002B091510230915202CC
:100690000196A11DB11D232F2D5F2D3720F02D5761
:1006A0000196A11DB11D2093520280934E0290939A
:1006B0004F02A0935002B093510280914A02909150
:1006C0004B02A0914C02B0914D020196A11DB11DAB
:1006D00080934A0290934B02A0934C02B0934D0238
:1006E000BF91AF919F918F913F912F910F900FBE2E
:1006F0000F901F901895789484B5826084BD84B55E
:10070000816084BD85B5826085BD85B5816085BD0C
:10071000EEE6F0E0808181608083E1E8F0E0108225
:10072000808182608083808181608083E0E8F0E066
:10073000808181608083E1EBF0E080818460808350
:10074000E0EBF0E0808181608083E1E9F0E080818E
:1007500082608083808181608083E0E9F0E0808135
:1007600081608083E1EAF0E0808182608083808123
:1007700081608083E0EAF0E0808181608083E1E253
:10078000F1E0808182608083808181608083E0E20B
:10079000F1E0808181608083EAE7F0E0808184601D
:1007A000808380818260808380818160808380817A
:1007B000806880831092C1000895CF93DF93482F03
:1007C00050E0CA0188589E4FFC0134914E5C5E4F48
:1007D000FA018491882369F190E0880F991FFC0148
:1007E000EC51FF4FA591B491FC01E250FF4FC59130
:1007F000D491662351F42FB7F8948C91932F909550
:1008000089238C93888189230BC0623061F42FB7D0
:10081000F8948C91932F909589238C938881832BC6
:1008200088832FBF06C09FB7F8948C91832B8C933D
:100830009FBFDF91CF910895893009F449C08A3074
:10084000A0F4843051F1853040F4823079F1833066
:1008500000F5813009F063C026C0873079F1883017
:1008600098F5863009F05BC025C08D3009F442C090
:100870008E3028F48B30B1F18C30C0F52DC0803132
:1008800009F442C0813109F445C08F3009F047C0F6
:1008900037C0809180008F7703C0809180008F7D6A
:1008A00080938000089584B58F7702C084B58F7DD2
:1008B00084BD08958091B0008F7703C08091B0000F
:1008C0008F7D8093B0000895809190008F7707C04E
:1008D000809190008F7D03C080919000877F8093EE
:1008E000900008958091A0008F7707C08091A000AC
:1008F0008F7D03C08091A000877F8093A000089522
:10090000809120018F7703C0809120018F7D80939B
:100910002001089580912001877F80932001089510
:10092000FF920F931F93F62E482F50E0CA01825476
:100930009E4FFC012491CA0188589E4FFC011491DE
:100940004E5C5E4FFA0104910023C9F0222319F096
:10095000822F0E941C04E02FF0E0EE0FFF1FE250F8
:10096000FF4FA591B4919FB7F894FF2021F48C918B
:100970001095812302C08C91812B8C939FBF1F9176
:100980000F91FF900895EE0FFF1F0590F491E02D59
:060990001994F894FFCF5A
:00000001FF
